:020000040800F2
:1000000018240020A9040008AD040008AF0400086B
:10001000B1040008B3040008B504000800000000A3
:10002000000000000000000000000000B70400080D
:10003000B904000800000000BB040008BD0400086B
:10004000BF040008BF040008BF040008BF04000884
:10005000BF040008BF040008BF040008BF04000874
:10006000BF040008BF040008BF040008BF04000864
:10007000BF040008BF040008BF040008BF04000854
:10008000BF040008BF040008BF040008BF04000844
:10009000BF040008BF040008BF040008BF04000834
:1000A000BF040008B5900008BF040008BF040008A2
:1000B000BF040008BF040008BF040008BF04000814
:1000C000BF040008BF040008BF040008BF04000804
:1000D000BF040008EFA0000841A00008BF0400080A
:1000E000BF040008BF040008BF04000800F002F8C5
:1000F00000F076F80AA090E8000C82448344AAF14C
:100100000107DA4501D100F06BF8AFF2090EBAE849
:100110000F0013F0010F18BFFB1A43F0010318473B
:10012000DCEA0000FCEA00000A444FF0000C10F882
:10013000013B13F0070408BF10F8014B1D1108BF65
:1001400010F8015B641E05D010F8016B641E01F805
:10015000016BF9D113F0080F1EBF10F8014BAD1C55
:100160000C1B09D16D1E58BF01F801CBFAD505E073
:1001700014F8016B01F8016B6D1EF9D59142D6D3CD
:10018000704700000023002400250026103A28BFF5
:1001900078C1FBD8520728BF30C148BF0B607047F9
:1001A00066290EF08C8164290BF0588175290BF0BB
:1001B000558178290BF08E81002070471FB50BF018
:1001C000EDFC0400002000210DF06EF8401C606082
:1001D000002000210DF052F8E0601FBD10B510BDE9
:1001E0000BF028FE1146FFF7E9FF0AF0CEFD0BF0F9
:1001F00054FE03B4FFF7F2FF03BC0BF057FE000000
:100200009848806940F001009649886196484068A6
:1002100020F00400944948609248806940F004004E
:10022000904988619148006820F47F608F49086098
:100230000846006840F0B00008600846006840F4D6
:10024000806008608748806940F480408549886103
:100250009C20874908800020091D0880091D08800E
:10026000081F0088091F0880002081490C31088080
:100270007F48001D008840F00C007D49091D088062
:100280000846008840F020000880081D0088091DED
:100290000880081D0088091D08807648006840F025
:1002A00020004FF0E021C1F804017148001D0088D2
:1002B00040F400506E49091D08806A48806940F08A
:1002C0000100684988616848406820F00800664974
:1002D00048606448806940F004006249886163486E
:1002E000001F006820F47F406049091F086008462D
:1002F000006840F4306008600846006840F48040C0
:1003000008605848C06940F400305649C86140F25E
:10031000A930594908800020091D0880091D08805E
:10032000081F0088091F0880002053490C310880ED
:100330005148001D008840F00C004F49091D0880FD
:100340000846008840F0A0000880081D0088091DAC
:100350000880081D0088091D08804FF0E020D0F8B3
:10036000040140F040004FF0E021C1F80401424890
:10037000001D008840F400503F49091D0880704767
:1003800010B500BF12203D49086000BF00BF3C48C7
:10039000344948603B48086000BF00BF31480068EE
:1003A00000F400300028F9D000BF2E48006800F0AB
:1003B00000700028F9D000BF2A48406800F00C0007
:1003C0000828F9D100BF00BF2648806940F40060CA
:1003D0002449886107202C4908804AF6C770091D06
:1003E00008800020091D0880274928390880091D38
:1003F0000880012024491C3908801E48001F00681D
:1004000040F000704FF0E021C1F800011E4828388C
:10041000008840F001001C492839088000BF00BF57
:100420001048806940F004000E49886117480F4960
:10043000091F08601648091D08600A48806940F0D5
:100440000800084988611348134908601348091DCA
:10045000086000BFFFF7D4FE10BD11487047114877
:1004600070470000001002400000014004080140F5
:100470000838014004E100E0084400400020024048
:1004800002AC1D0082000101282C0140110123282B
:100490000430040028800333000C01403304338807
:1004A0000051250280A8120108480047FEE7FEE738
:1004B000FEE7FEE7FEE7FEE7FEE7FEE7FEE7FEE714
:1004C00003480449044A054B70470000ED0000084A
:1004D00018200020182400201822002018220020B4
:1004E0002DE9F74F84B08A4693460020039050468A
:1004F0000DF04DF902460B46CDE900010020FE4902
:100500000CF0AAF904460D4604980DF09FFC06462F
:1005100022462B460DF08AF980460CF0DBFE049053
:1005200004980DF023FE029002980DF05BFE0490FB
:1005300004980DF08BFC044622460B46EFA158466A
:100540000AF044FF07B0BDE8F08F2DE9F04106AC9A
:1005500070CCEB4F3F68B7B9A527DFF8A8C38CF87C
:1005600000705A278CF8017082278CF80370E64FD0
:100570003F788CF8047000278CF805708CF80670B2
:1005800006278CF80770C0F30727DFF874C3DCF880
:1005900000C0CCEBCC0C4FF00A0808EB4C0CDFF899
:1005A000648308F80C70DFF858C3DCF800C0CCEBAB
:1005B000CC0C4FF00B0808EB4C0CDFF8488308F824
:1005C0000C00C1F30727DFF838C3DCF800C0CCEB20
:1005D000CC0C4FF00C0808EB4C0CDFF8288308F823
:1005E0000C70DFF81CC3DCF800C0CCEBCC0C4FF077
:1005F0000D0808EB4C0CDFF80C8308F80C10C2F364
:100600000727DFF8FCC2DCF800C0CCEBCC0C4FF0C5
:100610000E0808EB4C0CDFF8EC8208F80C70DFF8E1
:10062000E0C2DCF800C0CCEBCC0C4FF00F0808EBBC
:100630004C0CDFF8D08208F80C20C3F30727DFF852
:10064000C0C2DCF800C0CCEBCC0C4FF0100808EBBB
:100650004C0CDFF8B08208F80C70DFF8A4C2DCF8AC
:1006600000C0CCEBCC0C4FF0110808EB4C0CDFF8C1
:10067000948208F80C30C4F30727DFF884C2DCF852
:1006800000C0CCEBCC0C4FF0120808EB4C0CDFF8A0
:10069000748208F80C70DFF868C2DCF800C0CCEB9C
:1006A000CC0C4FF0130808EB4C0CDFF8588208F81C
:1006B0000C40C5F30727DFF848C2DCF800C0CCEBDC
:1006C000CC0C4FF0140808EB4C0CDFF8388208F81B
:1006D0000C70DFF82CC2DCF800C0CCEBCC0C4FF077
:1006E000150808EB4C0CDFF81C8208F80C50C6F318
:1006F0000727DFF80CC2DCF800C0CCEBCC0C4FF0C5
:10070000160808EB4C0CDFF8FC8108F80C70DFF8D9
:10071000F0C1DCF800C0CCEBCC0C4FF0170808EBB4
:100720004C0CDFF8E08108F80C60754F3F687F1CC7
:10073000DFF8CCC1CCF8007067463F78C7EBC7073D
:100740004FF0070C0CEB4707C4468CF802706C4F57
:100750003F883F0A8CF80870694F3F788CF8097021
:100760000127DFF8A8C1CCF80070BDE8F08110B512
:10077000634A1268C2EBC2020A2303EB4201002063
:1007800007E0604A125C624B1B680344614CE25410
:10079000401C8842F5DB00225F4B1A605C4A1268FD
:1007A0000A445B4B1A601A461268521C5B4B1A6073
:1007B00010BDA521574A564B1B68D15454490968AE
:1007C000491C534A11605A21524A514B1B68D1545B
:1007D0004F490968491C4E4A116004224D494C4B4F
:1007E0001B68CA544A490968491C494A116080215A
:1007F000484A474B1B68D15445490968491C444A3B
:1008000011600321434A424B1B68D1544049096897
:10081000491C3F4A116000213E4A3D4B1B68D154A0
:100820003B490968491C3A4A11603A4912688854A0
:1008300037490968491C364A11607047A521354A75
:10084000334B1B68D15432490968491C304A116046
:100850005A21304A2E4B1B68D1542D490968491C36
:100860002B4A116003222B49294B1B68CA54284983
:100870000968491C264A11608021264A244B1B68BE
:10088000D15423490968491C214A11600221214A97
:100890001F4B1B68D1541E490968491C1C4A116032
:1008A0001C49126888541A490968491C184A116081
:1008B0007047A521174A164B1B68D1541449096883
:1008C000491C134A11605A21124A114B1B68D1541A
:1008D0000F490968491C0E4A116003220D490C4B4F
:1008E0001B68CA540A490968491C094A11608021D9
:1008F000084A074B1B6813E00000244025660000EF
:1009000000000020C20500204100002070000020EF
:10091000080000209C030020040000200C000020A0
:10092000D154FE490968491CFC4A11600121FC4A66
:10093000FA4B1B68D154F9490968491CF74A116000
:10094000F74912688854F5490968491CF34A11604F
:1009500070470146002004E02022F24B1A54421C4A
:10096000D0B2F14A525C8242F6DC0022ED4B1A54BE
:100970007047002003E02021EA4A1154401CE94955
:10098000095C0029F7D1704770B50346002004E0E8
:10099000145C1D18E34E7455401C145C002CF7D1F8
:1009A00070BD2DE9F04385B00546894617461E46C1
:1009B0000024A846072E14DA6A4631463846FFF767
:1009C0008FFD05E01DF804002919D64A5054641C17
:1009D0001DF80400C0B12819D249085C0028F1D1E3
:1009E00012E06A4631463846FFF77AFD04E02020DF
:1009F0002919CC4A5054641C1DF8040020B1281950
:100A0000C849085C0028F2D105B0BDE8F0832DE9A3
:100A1000F041DDE9064600EB40074FF0310C0CEBEE
:100A20004715A527DFF8F8C2DFF80083D8F8008063
:100A30000CF80870BD4F3F687F1CDFF8F0C2CCF89F
:100A40000070B64F3F687F1CDFF8D0C2CCF8007052
:100A50004FF05A0CB24FDFF8D482D8F8008007F874
:100A600008C0B24F3F687F1CDFF8C0C2CCF80070EE
:100A7000AA4F3F687F1CDFF8A4C2CCF80070AB4FD0
:100A80003F687F1CDFF8A4C2CCF80070A34F3F681A
:100A90007F1CDFF888C2CCF800704FF0820CA04FAA
:100AA000DFF88882D8F8008007F808C09F4F3F68B9
:100AB0007F1CDFF878C2CCF80070984F3F687F1C2D
:100AC000DFF858C2CCF800702F0ADFF864C29CF837
:100AD00000C047EA0C1707F0FF0C914FDFF84C827B
:100AE000D8F8008007F808C0904F3F687F1CDFF8F7
:100AF0003CC2CCF80070894F3F687F1CDFF81CC2F5
:100B0000CCF80070864FDFF82482D8F8008007F810
:100B10000850864F3F687F1CDFF810C2CCF8007089
:100B20007E4F3F687F1CDFF8F4C1CCF80070C3F340
:100B30000727DFF8ECC1DFF8F481D8F800800CF863
:100B400008707A4F3F687F1CDFF8E0C1CCF8007076
:100B5000724F3F687F1CDFF8C4C1CCF80070DFF82B
:100B6000C0C1DFF8C881D8F800800CF808306F4F9A
:100B70003F687F1CDFF8B4C1CCF80070674F3F6856
:100B80007F1CDFF898C1CCF80070C4F30727DFF8AA
:100B900090C1DFF89881D8F800800CF80870634F96
:100BA0003F687F1CDFF884C1CCF800705B4F3F6862
:100BB0007F1CDFF868C1CCF80070DFF864C1DFF893
:100BC0006C81D8F800800CF80840584F3F687F1CB3
:100BD000DFF858C1CCF80070504F3F687F1CDFF839
:100BE0003CC1CCF80070C2F3072C4D4FDFF83C81BC
:100BF000D8F8008007F808C04C4F3F687F1CDFF82A
:100C00002CC1CCF80070454F3F687F1CDFF80CC149
:100C1000CCF80070DFF808C1DFF81081D8F8008048
:100C20000CF80820414F3F687F1CDFF800C1CCF86A
:100C300000703A4F3F687F1CDFF8E0C0CCF80070CE
:100C40004FF0000C364FDFF8E480D8F8008007F84A
:100C500008C0364F3F687F1CDFF8D0C0CCF800706A
:100C60002E4F3F687F1CDFF8B4C0CCF8007000271F
:100C7000DFF8ACC0DFF8B480D8F800800CF808705A
:100C80002A4F3F687F1CDFF8A4C0CCF80070234FC8
:100C90003F687F1CDFF884C0CCF800700027DFF8C5
:100CA00080C0DFF88880D8F800800CF808701F4FEB
:100CB0003F687F1CDFF874C0CCF80070174F3F68A6
:100CC0007F1CDFF858C0CCF800700027DFF850C058
:100CD000DFF85880D8F800800CF80870134F3F6890
:100CE0007F1CDFF848C0CCF800700C4F3F687F1CB9
:100CF000DFF828C0CCF800700327DFF824C0DFF845
:100D00002C80D8F800800CF80870084F3F687F1CD2
:100D1000DFF818C0CCF80070004F0BE0080000208E
:100D20009C0300202000002044E600080C00002066
:100D30003D0000203F687F1CDFF8F8C3CCF800704E
:100D40001F27DFF8F4C3DFF8F483D8F800800CF82D
:100D50000870FA4F3F687F1CDFF8E0C3CCF80070E2
:100D6000F44F3F687F1CDFF8CCC3CCF8007001273C
:100D7000DFF8C4C3DFF8C483D8F800800CF808702B
:100D8000EE4F3F687F1CDFF8B4C3CCF80070E94F2A
:100D90003F687F1CDFF89CC3CCF800704FF0DF0C7D
:100DA000E54FDFF89883D8F8008007F808C0E34FD4
:100DB0003F687F1CDFF884C3CCF80070DD4F3F68CC
:100DC0007F1CDFF870C3CCF800700027DFF868C321
:100DD000DFF86883D8F800800CF80870D74F3F68B8
:100DE0007F1CDFF858C3CCF80070D24F3F687F1CDF
:100DF000DFF840C3CCF80070CF4FDFF84083D8F85D
:100E0000008007F80860CD4F3F687F1CDFF82CC3D7
:100E1000CCF80070C74F3F687F1CDFF818C3CCF8D0
:100E200000700027DFF810C3DFF81083D8F80080C7
:100E30000CF80870C14F3F687F1CDFF800C3CCF886
:100E40000070BC4F3F687F1CDFF8E8C2CCF8007030
:100E50000027DFF8E4C2DFF8E482D8F800800CF85D
:100E60000870B64F3F687F1CDFF8D0C2CCF8007026
:100E7000B04F3F687F1CDFF8BCC2CCF80070AE4FAB
:100E8000DFF8B8C2DCF800C007F80C10AB4F3F68C1
:100E90007F1CDFF8A8C2CCF80070A64F3F687F1C0B
:100EA000DFF890C2CCF80070A34FDFF890C2DCF8F6
:100EB00000C007F80C10A14F3F687F1CDFF87CC210
:100EC000CCF800701727DFF870C28CF80270BDE80C
:100ED000F08130B500EB4003332404EB4312A5232B
:100EE000954C964D2D686355944B1B685B1C934C39
:100EF0002360904B1B685B1C8E4C23605A248E4BE6
:100F00008E4D2D685C558D4B1B685B1C8B4C236094
:100F1000884B1B685B1C874C23600523864C874DE0
:100F20002D686355854B1B685B1C844C2360814B8B
:100F30001B685B1C7F4C236082247F4B7F4D2D6898
:100F40005C557E4B1B685B1C7C4C2360794B1B689B
:100F50005B1C784C2360C2F30723774C774D2D68D8
:100F60006355764B1B685B1C744C2360714B1B688C
:100F70005B1C704C2360704C704D2D6862556F4B3C
:100F80001B685B1C6D4C23606A4B1B685B1C694CC7
:100F90002360C1F30724684B684D2D685C55674B8F
:100FA0001B685B1C654C2360624B1B685B1C614CBF
:100FB0002360614C614D2D686155604B1B685B1C63
:100FC0005E4C23605B4B1B685B1C5A4C236030BD3E
:100FD00030B50246A524584B584D2D685C55574BEB
:100FE0001B685B1C554C23605A23534C534D2D6892
:100FF0006355524B1B685B1C504C236023461B6897
:101000005B1C236082234C4C4C4D2D6863554B4B2D
:101010001B685B1C494C236002EB4203C3F3D703FC
:10102000474C247843EA0413DCB2434B434D2D680C
:101030005C55424B1B685B1C404C236002EB420337
:101040005B071B0E3C4C3D4D2D6863553B4B1B68AD
:101050005B1C3A4C2360002000BF0B5C364C374DC4
:101060002D686355354B1B685B1C344C2360401C5A
:101070000B5C002BF1D1C31CDCB2304B1D68031D8F
:10108000EB1A2D4DEC542D4B1B682A4C236030BDC0
:101090002DE9F04706460F4614461D46DDF8208030
:1010A00024480068B0F5167F41D2BE4211D12548D0
:1010B00050F824002449096888421BD0224800685F
:1010C000204941F82400204801682046FFF701FF2D
:1010D00010E01C4850F824001C490968884209D0D7
:1010E0001A480068174941F824001848016820464A
:1010F000FFF7EFFE164951F824000DF08BF88146FA
:1011000029460CF0FFFF12D0E0B2FFF722FC434665
:101110002A4621460020FFF744FC0E492046FFF7EF
:1011200057FF28460DF03EF8094941F82400BDE874
:10113000F0870000080000209C0300200C00002025
:101140003D000020840800203800002034000020EA
:1011500000070020200000202DE9FE4F07468846AA
:101160009946DDE90CAB0F26B9F1000F02D10F242F
:10117000002501E01E24002547450ED1FD480078DA
:1011800000F0040090B1A819A3192A4621468DE861
:10119000010C2320FFF7D9F908E0A819A3192A4662
:1011A00021468DE8010C2320FFF7CFF9BDE8FE8F23
:1011B0001CB50020F049086041E00020EF490860BC
:1011C000EF490860EF490860EF48EB490968405C67
:1011D000EE49E94A126851F82210CDE90010EC48B6
:1011E000E549096850F8213000221621E2480068DC
:1011F000FFF70DFCE0490878FFF7ABFBDE4800681D
:101200000DF008F8044600232246DB480168184622
:10121000FFF7C7FBDF49D8480068FFF7D9FE012078
:10122000DD49087000BFDC4800780028FBD10A20A7
:101230000AF0AEF8D0480068401CCF490860CE489C
:1012400000681228B9D31CBD1CB50020CA4908602B
:101250003DE00020C9490860C9490860C9490860E3
:10126000C948C5490968405CC349096801EB810167
:1012700089000023FF22CDE900101721BE48006835
:10128000FFF7C5FBBC490878FFF763FBBA48006865
:101290000CF0C0FF044600232246B74801681846F8
:1012A000FFF77FFBBB49B4480068FFF791FE0120C0
:1012B000B949087000BFB84800780028FBD10A205F
:1012C0000AF066F8AC480068401CAB490860AA48C0
:1012D00000681828BDD31CBD10B50022002080E294
:1012E000AE4B1B7823B1AE4BD3F80033590003E06B
:1012F000AC4B53F820305900AB4B53F820308B42A5
:1013000024D20023A94C2370A74B53F82030A84CBB
:10131000236023461B6864246343A54C236004E0D8
:10132000A24B1B785B1CA14C2370A24B9F4C2478D2
:1013300053F824304B439E4C2468A342F0D39E4B79
:101340009A4C24781B5D9D4C235402E000239B4C57
:1013500023549B4BD3F82041D3F838319C4209D910
:10136000974BD3F82041D3F83831E31A5B00954C02
:10137000236002E00023934C2360914BD3F820417B
:10138000D3F834312344884C2468B4EB430F09D29A
:10139000854B1B688B4C2468A34203D901238A4CDC
:1013A000237002E00023884C2370854BD3F8203152
:1013B000282B02D20123844C2370814BD3F8244183
:1013C000D3F838319C4209D97D4BD3F82441D3F866
:1013D0003831E31A5B007B4C236002E00023794C38
:1013E0002360774BD3F82441D3F8343123446E4C37
:1013F0006468B4EB430F09D26B4B5B68714C246893
:10140000A34203D90123714C237002E000236F4CE7
:1014100023706B4BD3F82431282B02D201236B4C61
:101420002370674BD3F82841D3F838319C4209D94F
:10143000634BD3F82841D3F83831E31A5B00614C91
:10144000236002E000235F4C23605D4BD3F828410A
:10145000D3F834312344544CA468B4EB430F09D27D
:10146000514B9B68574C2468A34203D90123584C25
:10147000237002E00023564C2370514BD3F82831DF
:10148000282B02D20123524C23704D4BD3F82C4110
:10149000D3F838319C4209D9494BD3F82C41D3F8C1
:1014A0003831E31A5B00474C236002E00023454CCF
:1014B0002360434BD3F82C41D3F8343123443A4CC6
:1014C000E468B4EB430F09D2374BDB683D4C24682A
:1014D000A34203D901233F4C237002E000233D4C7B
:1014E0002370374BD3F82C31282B02D20123394CEF
:1014F0002370334BD3F83041D3F838319C4209D9AB
:101500002F4BD3F83041D3F83831E31A5B002D4C20
:10151000236002E000232B4C2360294BD3F8304199
:10152000D3F834312344204C2469B4EB430F09D25F
:101530001D4B1B69234C2468A34203D90123264C6D
:10154000237002E00023244C23701D4BD3F830316C
:10155000282B02D20123204C23701B4B1B78EBB3AA
:101560001A4B1B78D3B31A4B1B78BBB3194B1B78A0
:10157000A3B334E03E00002010000020040000204F
:10158000080000200C00002044E60008FCE50008EC
:10159000B4E50008200000203C000020D40000201A
:1015A00080190020240C0020440A00208D02002015
:1015B000B0020020B4020020890200207E02002038
:1015C000040B0020D80100207502002076020020C4
:1015D00077020020780200207902002003E0012336
:1015E000FE4C236002E00023FC4C2360FC4BD3F84C
:1015F0002031282B05D2FA4BD3F820310833F94C8F
:101600002360F74BD3F82431282B05D2F44BD3F8C1
:1016100024310833F34C6360F14BD3F82831282B85
:1016200005D2EF4BD3F828310833EE4CA360EC4BD6
:10163000D3F82C31282B05D2E94BD3F82C310833C1
:10164000E84CE360E64BD3F83031282B05D2E44B6D
:10165000D3F830310833E34C2361E14BD3F8204118
:10166000D3F834312344DF4C2468B4EB430F20D843
:10167000DB4BD3F82441D3F834312344D94C64688C
:10168000B4EB430F15D8D64BD3F82841D3F83431F7
:101690002344D44CA468B4EB430F0AD8D04BD3F8FE
:1016A0002C41D3F834312344CE4CE468B4EB430FDF
:1016B00003D90123CC4C237002E00023CA4C2370D1
:1016C0000023CA4C2370C64BD3F82041D3F83831DD
:1016D0009C4209D9C24BD3F82041D3F83831E31AE0
:1016E0005B00C34C236002E00023C14C2360BD4B70
:1016F0001B68BF4C2468A34207D2B94BD3F82031F2
:10170000282B02D90123B94C2370B54BD3F82441BF
:10171000D3F838319C4209D9B14BD3F82441D3F8DE
:101720003831E31A5B00B24C236002E00023B04C76
:101730002360AC4B5B68AE4C2468A34207D2A84B35
:10174000D3F82431282B02D90123A84C2370A44BB1
:10175000D3F82841D3F838319C4209D9A04BD3F8AB
:101760002841D3F83831E31A5B00A14C236002E032
:1017700000239F4C23609B4B9B689D4C2468A34295
:1017800007D2974BD3F82831282B02D90123974C45
:101790002370934BD3F82C41D3F838319C4209D9AC
:1017A0008F4BD3F82C41D3F83831E31A5B00904CBF
:1017B000236002E000238E4C23608A4BDB688C4C54
:1017C0002468A34207D2864BD3F82C31282B02D9A8
:1017D0000123864C2370854B1B78864C2370431C59
:1017E000D8B20528FFF67CAD10BD83480068401CC8
:1017F0008149086008460068632801D90020086014
:10180000704701217D4A11707D490978002901F056
:101810005B821146097800294DD07A490978002960
:101820007ED0794909780029FAD0002111706B49DE
:101830000968002975D00021744A1170744909683B
:10184000744A1268914237D373490978012933DC0D
:1018500001216E4A11706249D1F890106422B1FBE7
:10186000F2F302FB13106D4A10705D49D1F890102D
:101870006422B1FBF2F06A4A10706A49097841F0BB
:101880001001684A11706849097841F02001664AE0
:101890001170534991F89410644A11705049D1F86D
:1018A0009410634A1268914205D102215A4A11707C
:1018B00000215F4A11600CE1554909685D4A1268D0
:1018C00091423AD354490978022936DC02214F4A21
:1018D00011704349D1F89C106422B1FBF2F302FB72
:1018E00013104E4A10703E49D1F89C106422B1FB8F
:1018F000F2F04B4A10704B49097841F01001494A07
:1019000011704949097801F0DF01474A11703449E3
:1019100091F8A010454A11703149D1F8A01001E0AA
:10192000C3E099E0424A12689142C4D80021404A7B
:1019300011600321384A1170CBE037490978032937
:10194000B9DC0321314A11702549D1F8A410642271
:10195000B1FBF2F302FB1310304A10702049D1F8AA
:10196000A4106422B1FBF2F02D4A10702D490978C1
:1019700041F010012B4A11702B49097801F0DF0169
:10198000294A1170164991F8A810284A1170144973
:10199000D1F8A810264A126891425CD80021234A47
:1019A0001170234A116004211B4A11700121224A3F
:1019B00011702249D1F83011214A11600121214AC8
:1019C0001170074991F84C10144A1170044991F8AC
:1019D0004810134A117000210A4A35E0C401002062
:1019E000040B0020440A002053010020B101002014
:1019F000D80100207A0200208C000020CE000020B8
:101A00005001002069020020CA00002010020020BE
:101A1000B0000020F80100206E0100207E010020AF
:101A20007F0100207801002079010020FC000020C7
:101A3000C8010020FC010020D000002080190020F7
:101A4000BC010020740100201170F549097801F0F3
:101A5000EF01F34A11703CE00021F24A11600421C9
:101A6000F14A11700021F14A1170F14A1170EC49EC
:101A7000097801F0EF01EA4A1170EE49097801F0A6
:101A8000DF01EC4A1170EC49097819B10B21EB4ADE
:101A900011701EE0EA49097819B10A21E74A11706C
:101AA00017E00A21E54A117013E00521DE4A1170A2
:101AB000DB49097801F0EF01D94A1170DD49097855
:101AC00001F0DF01DB4A11700021DE4A1170DE4AAD
:101AD0001170DE49097800293AD0DD4909780029DA
:101AE00073D0DC4909780029FAD00021D74A117057
:101AF000D949096800296AD0D849097829B9D8494B
:101B00000968D84A1268914209D9D449097801B3C1
:101B1000D549D1F82811C34A1268914219D9002138
:101B2000D24A1170D24991F87010C04A1170D04950
:101B300091F86C10BE4A1170B949097841F0200142
:101B4000B74A1170BB49097841F02001B94A1170B8
:101B500074E0C549D1F8081101EB8101B14A12685E
:101B6000B2EB410F03D20121C24A117002E00D21F4
:101B7000B24A1170BC49D1F83411BF4A116000213A
:101B8000AA4A1170AA4A1170B14A1170A449097881
:101B900001F0DF01A24A1170A649097801F0DF01C6
:101BA000A44A11709E49097801F0FB019C4A11700A
:101BB000B249097801F0FE01B04A11709D490978D7
:101BC00001F0DF019B4A117038E021E0FFE70021BE
:101BD000964A1170964A11709149097801F0DF0117
:101BE0008F4A11709349097801F0DF01914A117011
:101BF0009149097811B10B21904A117090490978E7
:101C000011B10A218D4A11700021914A117015E01D
:101C10000021864A1170864A11708149097801F0C5
:101C2000DF017F4A11708349097801F0DF01814AA1
:101C300011700021864A1170914A11708349097808
:101C4000002966D08F490978D9B382490978C1B390
:101C500000217E4A11707249097801F0FB01704A37
:101C600011707D49096869B37D490968864A12681F
:101C7000914214D87C49D1F82C1181B17C4991F85A
:101C800080106A4A11707A4991F87C10684A117084
:101C90006349097841F04001614A117039E000213F
:101CA000624A1170624A11705D49097801F0BF0102
:101CB0005B4A117001216F4A117003216E4A116055
:101CC00027E018E0FFE70021584A1170584A1170C8
:101CD0005349097801F0BF01514A117056490978FA
:101CE00011B10B21554A11705549097889B10A2162
:101CF000524A11700DE000214C4A11704C4A11708B
:101D00004749097801F0BF01454A117000215D4A39
:101D100011704E49097811B35C49097839B34D49BE
:101D2000097821B30021494A117059490968491CB1
:101D3000574A116057490968574A126891420FD3B0
:101D40004949D1F8301264225143514A12689142F4
:101D500006D93849097841F01001364A11700BE074
:101D60000121444A11700321434A116004E000211B
:101D7000464A1170464A11603449097800294CD00E
:101D800046490978002949D032490978002945D0C7
:101D900000212E4A11704249097801F0100111B951
:101DA00035490968B9B33E49097801F0080121B104
:101DB0003B49097801F0020169BB3A4909683A4A8E
:101DC0001268914204D23649097801F0020111B338
:101DD000304909680A31304A126891421BD32649BA
:101DE0000968C9B12049D1F85412A9B12049D1F8E4
:101DF000E010214A1268B2EB510F57D20D49097811
:101E000041F002010B4A11701C49097801F0BF0131
:101E10001A4A117063E06DE055E0B9E0A5E00000FA
:101E200078010020C8010020100200207E0100205F
:101E30007F010020790100205301002011020020C1
:101E40007A020020690200206E010020CE000020EE
:101E50004E010020CA000020C4010020B001002073
:101E6000B000002020010020801900207401002013
:101E7000040B0020D0000020BC0100207A010020CB
:101E80006F0100204F0100200002002051010020BE
:101E900028010020CC0100201C010020AC01002002
:101EA0007C0100200C010020D4010020FB490978AE
:101EB00041F04001F94A1170F949097801F0FD013A
:101EC000F74A11700BE0F649097841F00201F44A33
:101ED0001170F249097801F0BF01F04A1170F1491F
:101EE00091F8DC10F04A1170EE4991F8D810EF4AE1
:101EF00011704DE0E949097801F0BF01E74A11701E
:101F0000E749097801F0FD01E54A11700021E64A30
:101F10001170E64A1170E649097801F0080121B113
:101F2000E349097801F0020151B9E2490968E24A3E
:101F30001268914208D2DE49097801F0020119B90C
:101F40000E21DE4A117002E00021DC4A1170D849EE
:101F5000097801F01001D9B90121D94A1170D94984
:101F6000096D491CD84A116012E0CC49097801F08A
:101F7000BF01CA4A1170CA49097801F0FD01C84A77
:101F800011700021D14A1170C74A1170C74A1170EF
:101F9000CF490978C9B3CF490978B9B3CE4909788F
:101FA000A1B30021CA4A1170C149097801F020018A
:101FB00011B9C549096851B3C349096841B3C14959
:101FC000D1F8541221B3B749D1F8EC10BE4A1268C7
:101FD000B2EB510F0CD2B249097841F00401B04A7A
:101FE0001170AE49097801F07F01AC4A11701CE014
:101FF000AA49097841F08001A84A1170A8490978D6
:1020000001F0FB01A64A11700FE044E030E017E058
:10201000FFE7A349097841F00401A14A11709F49E3
:10202000097801F07F019D4A11709E4991F8E810EE
:102030009D4A11709B4991F8E4109C4A11702AE066
:102040009749097801F0FB01954A11709349097885
:1020500001F07F01914A11700021934A1170934A57
:1020600011700521984A11600121954A117012E002
:102070008B49097801F0FB01894A11708749097879
:1020800001F07F01854A11700021924A1170864A41
:102090001170864A11708E490978E1B38F49097829
:1020A000D1B38D490978B9B30021894A11708049AB
:1020B000097801F0200181BB7D49097801F0040114
:1020C00021B17B49097801F0020169B984490968A5
:1020D000794A1268914204D97549097801F00201E0
:1020E00011B179490968C1B17E4909681F317E4A39
:1020F0001268914212D37D49097841F080017B4AF0
:102100001170684991F8B810674A1170654991F8E3
:10211000B410664A11702CE01EE0FFE7734909789D
:1021200001F07F01714A117000215F4A11705F4A0E
:1021300011705F49097801F0200119B109215F4A46
:10214000117005E001215E4A117000215B4A117097
:1021500003215D4A11600CE06449097801F07F01B8
:10216000624A117000215D4A11704F4A11704F4A46
:10217000117057490978E9B35D490978D9B35649CF
:102180000978C1B30021524A11705A49097801F007
:10219000010149B95749097801F0200121B14449A9
:1021A000097801F0010151B953490968424A12689E
:1021B000914209D23E49097801F0010121B9414912
:1021C000D1F8E010404A11604A49097801F0010154
:1021D000B9B94849097801F0200121B13449097899
:1021E00001F0010181B944490968334A12689142FA
:1021F00007D201E051E081E02D49097801F00101A9
:1022000011B131490968E1B13849097841F0040157
:10221000364A11702149097841F001011F4A1170B5
:102220001F49097841F020011D4A11701D4991F89C
:102230004C101D4A11701B4991F848101B4A11702F
:102240005FE02C49097801F0010119B128211B4AEE
:10225000117002E00021194A11702649097801F035
:102260000101D1B90121164A11702049097841F0C4
:1022700004011E4A11700949097841F00101074A19
:1022800011700749097841F02001054A11700D4984
:10229000D1F8E0100C4A116033E032E07A010020FE
:1022A00079010020040B00207E0100207F01002026
:1022B0007C0100200C010020D4010020110200202C
:1022C000D000002080190020BC010020AC010020BB
:1022D000CE000020AA010020CA000020A801002092
:1022E00008010020CC0100201C0100207801002002
:1022F000A00100207B010020000100200021FE4AF7
:102300001170FE49097881B3FD490978F1B3FD499F
:102310000978D9B30021F94A1170FB49097801F015
:10232000400121B1F949097801F0010169B9F84981
:102330000968F84A1268914218D9F449097801F0FD
:10234000010199B9F449096881B1F44991F854102F
:10235000F34A1170F14991F85810F24A1170F2499C
:10236000097841F00801F04A117024E00121EF4A98
:102370001170EF49D1F8D010E74A1160EA490978A5
:1023800001F0F701E84A1170002100E006E0DC4AA4
:102390001170E34A1170E34A11700CE0E2490978C8
:1023A00001F0F701E04A11700021D54A1170DC4AB2
:1023B0001170DC4A1170D149097831B3DD490978CF
:1023C000B1B3D049097899B30021CC4A1170DA49E8
:1023D00009680B31D94A1268914217D3D449D1F810
:1023E0006812D74A1268914210D9CC4991F800116D
:1023F000CB4A1170C94991F8FC10CA4A1170D149F1
:10240000097841F00801CF4A117020E00121C74A44
:1024100011700321C04A11600021C14A1170C14AE4
:102420001170C849097801F0F701C64A11700EE031
:10243000FFE70021BA4A1170BA4A1170C149097800
:1024400001F0F701BF4A11700021BA4A1170AB497F
:10245000097881B3BC490978F1B3AA490978D9B39D
:102460000021A64A1170A949097801F0080121B19B
:10247000A649097801F0020169B9B4490968A54A79
:102480001268914204D2A149097801F0020111B108
:10249000A149096881B1A14991F8C010A14A117000
:1024A0009E4991F8C4109E4A1170A649097841F0DE
:1024B0000101A44A117026E001219C4A11700321F8
:1024C000954A11600021974A1170954A1170A049F0
:1024D0000978C1B99B4900E005E0097801F0FE01E7
:1024E000984A11700FE000218E4A1170964A1170BF
:1024F0008B4A11709649097829B99249097801F0F7
:10250000FE01904A11707D490978002922D0904936
:10251000097800297ED07B4909780029FAD000216A
:10252000764A11708B49097801F0200199B18A49E6
:10253000097881B18949097841F04001874A1170D1
:102540007B4991F83C12764A1170794991F838121A
:10255000744A117023E27F49097801F020010029B3
:102560007DD17C49097801F040010029F8D1664904
:10257000097801F00101002971D06449097801F05E
:10258000080121B16149097801F0020151B96F498F
:102590000968604A1268914209D25C49097801F0E1
:1025A000020121B95D49D1F8D4100029D8D1574989
:1025B000097801F0100121B15D49D1F850120029CC
:1025C000CED10021644A11706449097801F0BF013D
:1025D000624A117058490968614A1268914262D88A
:1025E0005849097801F0FE01564A11705D49097891
:1025F0004B4A11705C4909784A4A11705B49097865
:1026000031B10021594A11704949096B424A1160A0
:102610004C4900E0AAE1097801F0DF01494A117054
:102620003A49097801F0400111B93B490968B9B14B
:102630003D49097801F0FE013B4A11704149097892
:1026400041F040013F4A1170344991F80C11344A6D
:102650001170324991F80811324A11709FE110E16E
:102660003849097801F0BF01364A11703B490978B1
:1026700041F00101394A11703249097841F02001D5
:10268000304A1170254949696422B1FBF2F302FB1B
:102690001311234A1170214949696422B1FBF2F1F7
:1026A000204A11707BE124490A6831490968091DF3
:1026B0008A4220D81E49D1F8D81129B12149097878
:1026C00041F001011F4A11702A490978144A11701A
:1026D00029490978134A11702849096851B900211C
:1026E0000F4A11700F4A11700F49097801F0FE016D
:1026F0000D4A45E051E068E0A0010020CE00002036
:10270000A3010020CA0000207B0100207C010020E2
:1027100004010020D4010020BC010020040B002093
:102720007E0100207F01002078010020D0000020E1
:1027300080190020A5010020CC0100201C010020F0
:102740002401002079010020A60100200C010020B6
:102750009D0100207D010020680200207A010020F8
:10276000E4010020FB000020EB00002073010020AA
:10277000E0010020EE000020DF000020C00100206A
:102780001170F649097801F0DF01F44A1170072150
:10279000F34A11700021F34A1170F349097841F0AE
:1027A0000101F14A1170ED49097801F0DF01EB4AAE
:1027B0001170EE49097801F04001002904D1114659
:1027C000097801F0BF011170E9E0E9490968E94AB7
:1027D000126891422CD8E849D1F8D81129B1DF49C3
:1027E000097841F00101DD4A1170E349097FE34AAC
:1027F0001170E149097EE24A1170DF49096AE14A34
:102800001160D949097841F00101D74A1170D349C3
:10281000097801F0DF01D14A1170D449097801F03B
:10282000400169BB1146097801F0BF011170B6E0A3
:10283000D149D1F8D81129B1C849097841F001012D
:10284000C64A1170D0490978CC4A1170CF4909782D
:10285000CB4A1170C449097841F00101C24A117094
:10286000BE49097841F02001BC4A1170BF4909787E
:1028700001F0400121B91146097801F0BF01117042
:102880008DE0C349097801F0010189B90021B54AF9
:1028900011700121BF4A1170B749D1F8E010BE4A4A
:1028A0001160AE49097801F0FE01AC4A117046E0B2
:1028B000BA49097801F0200119B10321A84A117021
:1028C00031E0B649097801F0400119B10421A44A68
:1028D000117028E0A549097801F0080121B1A34948
:1028E000097801F0020151B9AD490968AD4A126891
:1028F000914208D29D49097801F0020119B90E21CF
:10290000974A11700FE09949097801F0100139B127
:102910009949D1F8501219B11821914A117002E069
:1029200000218F4A1170A049097801F0FE019E4AEA
:1029300011708A49097801F0DF01884A117000217D
:102940008E4A11708E4A11708749097801F0FE0194
:10295000854A11708149097801F0DF017F4A1170C1
:102960001146097801F0BF01117018E00021834A77
:102970001170834A11707C49097801F0FE017A4A8E
:1029800011707649097801F0DF01744A117011461F
:10299000097801F0BF0111700021724A117083495A
:1029A000097800297AD07C49096819B180490978E9
:1029B000002973D17F490978002970D07E490978B0
:1029C00000296CD06A4909687C4A1268914209D989
:1029D0006949D1F8541229B16049097841F01001D0
:1029E0005E4A11707249097831B16349896E6A4A49
:1029F000116000216E4A117000216C4A11705A4911
:102A0000097801F0FB01584A11706749097801F013
:102A1000FE01654A11705149097801F0DF014F4A02
:102A200011705E49097801F00101A9B15249896E1E
:102A3000594A11605C49097841F002015A4A117003
:102A40004D4991F864104D4A11704B4991F860104E
:102A50004B4A117001F026BB5349097801F0FD0182
:102A6000514A11704149097801F0800111B94A4970
:102A70000968A9B13949097841F08001374A1170D4
:102A80004F4991F814113D4A11704D4991F81011B8
:102A90003B4A117064214B4A1170DBE7F5E0D3E04B
:102AA00048490978F1BB2D49097801F07F012B4A8B
:102AB00011702F490A6844490968C91C8A424CD2DE
:102AC0002B490968414A1268914214D84049097853
:102AD0002A4A11703F490978294A11702249097818
:102AE00041F00201204A11701C49097801F0DF0110
:102AF0001A4A1170AEE71E490968374A12689142B6
:102B000016D8364909781D4A1170354909781C4A8A
:102B100011701549097841F00201134A11700F49EB
:102B2000097800E07FE041F020010C4A117091E744
:102B30002C490978114A11702B490978104A1170F3
:102B40000949097841F00201074A117003490978DF
:102B500001F0DF01014A11707CE747E079010020B4
:102B6000110200209D010020780100207C0100203E
:102B7000CC010020E8010020801900207E01002007
:102B80007F010020C0010020F0000020E0000020B4
:102B90007B010020D0000020BC0100207D0100202E
:102BA0000C010020D40100207A010020CE0000207A
:102BB000730100209F010020CA00002010010020A6
:102BC000040B0020670200201C01002014010020DB
:102BD000F1000020E100002018010020F200002098
:102BE000E2000020F3000020E30000200121FE4A63
:102BF0001170FE49D1F8E411FD4A11600021FD4A2F
:102C00001170FD4A1170FD49097801F0FD01FB4A80
:102C10001170FB49097801F0DF01F94A11700021B8
:102C2000F84A117016E7F8490978491EF64A1170FA
:102C3000F349097801F07F01F14A11700021EE4A51
:102C40001170EC4A117005E70021EA4A1170EA4A56
:102C50001170EA49097801F0FD01E84A1170E8496C
:102C6000097801F0DF01E64A1170E849097801F0BE
:102C7000FD01E64A1170E249097801F07F01E04A5E
:102C800011700021DF4A1170E4E6DE49097800295D
:102C9000C8D0DF49097801F010010029C2D0DD4910
:102CA00009780029BED0DA49097801F0100100291D
:102CB000B8D0CE4991F84C12CE4A1170CB4991F858
:102CC0004812CD4A1170C5E6D349097800294FD082
:102CD000D249097800297DD0D1490978002979D0D5
:102CE0000021CD4A1170CF490968E9B30021CE4ACD
:102CF0001170CE490968CE4A1268914239D3CD4944
:102D00000978012935DC0121C74A1170CA49D1F877
:102D100090106422B1FBF2F302FB1310B54A10705D
:102D2000C549D1F890106422B1FBF2F0B24A10709C
:102D3000B249097841F01001B04A1170B0490978E0
:102D400041F02001AE4A1170BB4991F89410BB4A82
:102D50001170B949D1F89410B94A1268914207D15B
:102D60000221B44A117000E0A4E00021B44A1160CD
:102D7000E0E0AE490968B34A1268914239D3AD49DF
:102D80000978022935DC0221A74A1170AA49D1F835
:102D90009C106422B1FBF2F302FB1310954A1070F1
:102DA000A549D1F89C106422B1FBF2F0924A107050
:102DB0009249097841F01001904A117090490978C0
:102DC00001F0DF018E4A11709B4991F8A0109B4AD7
:102DD000117000E094E09849D1F8A010984A126868
:102DE000914205D80021964A11600321914A117041
:102DF000A0E09049097803293BDC03218A4A11703D
:102E00008D49D1F8A4106422B1FBF2F302FB131038
:102E1000784A10708849D1F8A4106422B1FBF2F00E
:102E2000754A10707549097841F01001734A1170A4
:102E30007349097801F0DF01714A11707E4991F8F8
:102E4000A8107E4A11707C49D1F8A8107C4A1268FB
:102E500091426FD80021794A1170794A116004219A
:102E6000744A11700121604A11700321604A116097
:102E700060E000215F4A11705F4A11705F49097874
:102E800001F0EF015D4A11705D49097801F0DF0141
:102E90005B4A11700021614A11706B49097811B1C8
:102EA0000B216A4A11706A49097841B30A21674ABD
:102EB00011703FE004215C4A117000214D4A1170ED
:102EC0004D4A11704E49097801F0DF014C4A1170EA
:102ED0004A49097801F0EF01484A117000214F4A30
:102EE0001170574A11605849097811B10B21574A9E
:102EF00011705749097811B10A21544A117019E02B
:102F000000213C4A11700521474A117000213A4ABC
:102F100011703A49097801F0EF01384A11703849C7
:102F2000097801F0DF01364A117000213B4A117027
:102F3000404A11703849097839B346490978E9B3EC
:102F400037490978D1B30021334A117035490968EE
:102F5000A9B336490968404A1268914216D83649E1
:102F600091F87010234A1170334991F86C10224A7D
:102F700011702249097841F02001204A117020493E
:102F8000097841F020011E4A11709EE00121164A85
:102F900011700321164A11600021164A1170164A59
:102FA00011702C4A11701549097801F0DF01134A9C
:102FB00011701146097801F0FB0101E06FE04DE06E
:102FC00011701249097801F0FE01104A11700C4984
:102FD000097801F0DF010A4A11701146097801F001
:102FE000DF01117071E00000D00000208019002086
:102FF000BC0100207E0100207F010020780100201C
:10300000790100209F010020670200207A01002042
:103010007D0100206C020020CE0000206A0200200A
:10302000C9000020C401002010020020B0000020D0
:10303000F80100206E010020040B0020FC0000209D
:10304000C8010020FC0100205301002011020020D3
:103050007A0200204C010020200100200021F84AC3
:103060001170F84A1170F849097801F0DF01F64A49
:103070001170F649097801F0DF01F44A1170F44942
:10308000097811B10B21F34A1170F349097811B194
:103090000A21F04A11700021F04A117015E0002158
:1030A000E74A1170E74A1170E749097801F0DF013A
:1030B000E54A1170E549097801F0DF01E34A117032
:1030C0000021E64A1170E64A1170E649097829B3F1
:1030D000E5490978A9B3E549097891B30021E14AA6
:1030E0001170E349096869B3E2490968E24A126864
:1030F000914214D8E149D1F82C1181B1E04991F8FD
:103100008010CF4A1170DE4991F87C10CD4A1170C1
:10311000CD49097841F04001CB4A11703CE00021D3
:10312000C74A1170C74A1170C749097801F0BF0139
:10313000C54A11700121D34A11700321D24A11608E
:103140002AE01BE0FFE70021BD4A1170BD4A117063
:10315000BD49097801F0BF01BB4A11700021C24A84
:103160001170BB49097811B10B21BA4A1170BA49E3
:10317000097889B10A21B74A11700DE00021B04ADF
:103180001170B04A1170B049097801F0BF01AE4A20
:1031900011700021B44A1170B249097831B3BB49AA
:1031A0000978B1B1B149097899B10021AD4A1170DE
:1031B000B749097841F08001B54A1170AF4991F8DB
:1031C0004C129F4A1170AD4991F848129D4A1170F6
:1031D0000CE0AF49097801F07F01AD4A1170002180
:1031E000974A1170974A1170A84A11709D49097841
:1031F00031B3A8490978B1B19C49097899B1002146
:10320000984A1170A249097841F04001A04A117012
:103210009A4991F83C128A4A1170984991F83812EB
:10322000884A11700CE09A49097801F0BF01984A68
:1032300011700021824A1170824A1170954A1170F2
:1032400088490978F9B19449097851B387490978CF
:1032500039B30021834A117090490968491C8F4A8B
:1032600011608F4909688F4A126891420CD38B49CB
:10327000096841F28832914206D27449097841F0D6
:103280001001724A117017E07049097801F0EF01DE
:103290006E4A117001217B4A117003217A4A116034
:1032A0000AE06A49097801F0EF01684A11700021CB
:1032B000794A1170794A11606A49097861B37A498B
:1032C000097851B36949097839B30021654A117009
:1032D00073490968754A1268914210D85B490978A8
:1032E00041F04001594A1170654991F80C11544A56
:1032F0001170634991F80811524A11701AE053494C
:10330000097801F0BF01514A117000214C4A117037
:103310004C4A1170644A11700CE04C49097801F074
:10332000BF014A4A117000215F4A1170444A11706E
:10333000444A11704B490978E1B35D490978D1B32A
:103340004A490978B9B30021464A117059490978A8
:1033500001F0100111B94C49096869B35549097860
:1033600001F0080121B15349097801F0020119BBAC
:1033700051490968514A1268914204D24D4909786D
:1033800001F00201C1B1464909680A31454A126893
:10339000914212D32D49097841F002012B4A117054
:1033A000374991F8DC10264A1170354991F8D81048
:1033B000244A117091E083E0FFE72449097801F085
:1033C000FD01224A117000211D4A11701D4A117021
:1033D000374A11703749097801F0080121B13549A0
:1033E000097801F0020151B933490968334A12687A
:1033F000914208D22F49097801F0020119B90E2132
:10340000144A11700DE0264909680A31254A1268EC
:10341000914203D209210F4A117002E000210D4AA6
:1034200011702449097801F0100141B90121154AB0
:1034300011701349096A491C134A11604DE04CE0B0
:103440007E0100207F01002078010020790100200A
:1034500053010020110200207A0200204C010020BC
:103460006F010020CE0000204D010020C900002087
:10347000C4010020B00000200002002080190020BC
:10348000040B0020D0000020BC01002057010020C8
:103490007A0100205801002052010020280100205C
:1034A000CC0100201C01002055010020E401002077
:1034B000AD0100207C0100200C010020D40100207F
:1034C000FD49097801F0FD01FB4A11700021FB4A1A
:1034D0001170FB4A1170FB4A1170FB49097801B366
:1034E000FA49097879B3FA49097861B30021F64AB3
:1034F0001170F849097801F0200111B9F6490968FD
:1035000081B1ED49097841F00401EB4A1170F349AA
:1035100091F8E810EA4A1170F04991F8E410E94A8C
:1035200011701EE0E449097801F0FB01E24A1170D4
:103530000021E34A1170E34A1170E44A117001213D
:10354000E74A11700DE0FFE7DB49097801F0FB0164
:10355000D94A11700021DD4A1170D94A1170D94A37
:103560001170D9490978E1B3DE490978D1B3D84956
:103570000978B9B30021D44A1170D649097801F00D
:10358000200181BBD349097801F0040121B1D1495F
:10359000097801F0020169B9D3490968D34A126870
:1035A000914204D9CB49097801F0020111B1CA490D
:1035B0000968C1B1CE4909680B31CE4A12689142FF
:1035C00012D3CD49097841F08001CB4A1170C3492B
:1035D00091F8B810BA4A1170C04991F8B410B94ABC
:1035E000117035E027E0FFE7C349097801F07F015A
:1035F000C14A11700021B24A1170B24A1170B54926
:10360000097801F0200131B9B94909680B31B94A8B
:103610001268914203D20921B84A117007E00121D2
:10362000AF4A11700021B54A1170AE4A11700321E2
:10363000A94A11600CE0B049097801F07F01AE4A57
:1036400011700021A74A11709D4A11709D4A117096
:103650009D490978A9B3AA49097899B39C49097881
:1036600081B30021984A1170A649097801F001013F
:10367000A1B9A449097801F0200121B1954909783F
:1036800001F0010169B9A0490968984A126891429C
:1036900004D29049097801F0010111B18E490968FD
:1036A00089B19549097841F00401934A11708B4919
:1036B00091F84C10824A1170884991F84810814A5B
:1036C00011702DE029E08F49097801F0010119B14D
:1036D00028218A4A117002E00021884A1170894924
:1036E000097801F00101D9B98649097801F0200172
:1036F00021B17849097801F0020189B1824909684C
:103700007A4A1268914204D27249097801F00201A2
:1037100031B90121724A117002E00021784A11701A
:103720006949097869B379490978E9B36849097839
:10373000D1B30021644A11707249097801F0400147
:1037400021B16449097801F0010151B97049096852
:10375000664A1268914215D95E49097801F0010163
:1037600081B95E4991F85410554A11705B4991F83E
:103770005810544A11706049097841F008015E4AB6
:10378000117022E00121564A11703C21524A116009
:103790005949097801F0F701574A117000215B4A35
:1037A0001170474A117000E002E0464A11700CE0C7
:1037B0005149097801F0F7014F4A11700021534A2D
:1037C00011703F4A11703F4A11703F49097881B327
:1037D0005049097871B33E49097859B300213A4AF2
:1037E000117043490968434A1268914210D33B491A
:1037F00091F80011324A1170384991F8FC10314AA1
:1038000011702D49097841F008012B4A11701FE011
:103810000121334A117003212F4A11600021284AE7
:103820001170284A11702449097801F0F701224AE1
:1038300011700DE00021224A1170224A11701E49B8
:10384000097801F0F7011C4A11700021314A11700A
:103850001D49097869B33049097859B31C49097879
:1038600041B30021184A11701A49097801F0080182
:1038700021B11849097801F0020169B9274909689D
:103880001A4A1268914204D21249097801F00201E1
:1038900011B11149096871B1104991F8C010094A74
:1038A00011700E4991F8C410054A11700249097847
:1038B00036E05CE04EE038E079010020AD01002008
:1038C0007E0100207F010020CE000020AB010020FF
:1038D000C90000207C010020BC010020040B002056
:1038E000D0000020A901002008010020D401002000
:1038F000CC0100201C0100207801002011020020D2
:10390000A10100207B01002000010020A201002075
:1039100004010020A4010020A70100200C010020C8
:1039200041F00101FE4A117021E00121FD4A1170B0
:103930000021FD4A11700321FC4A11600021FC4A5C
:103940001170FC4A1170F649097801F0FE01F44A41
:1039500011700CE00021F64A1170F34A1170F54A1B
:103960001170EF49097801F0FE01ED4A1170F2493A
:10397000097800297ED0F149097800297BD0F049E7
:1039800009780029FAD00021EB4A1170ED49097835
:1039900001F0200111B1EC490978E1B3E949097856
:1039A00001F0400111B1E8490978A1B3E74909786C
:1039B00001F0010179B3E649097801F0080121B16C
:1039C000E349097801F0020151B9E2490968E24A84
:1039D0001268914208D2DE49097801F0020119B952
:1039E000DE49D1F8D410B1B9D949097801F01001F4
:1039F00019B1DB49D1F8501269B9DA490968DA4AD4
:103A00001268914265D8D049097829B1D749097817
:103A1000C84A117004E011E1D5490978C54A11700E
:103A2000D4490978C24A1170D349097831B10021CB
:103A3000D14A1170CA49096BBC4A1160B84909786A
:103A400001F0DF01B64A1170C149097801F0400167
:103A500011B9B6490968C9B1C849097801F0FE0130
:103A6000C64A1170AE49097841F04001AC4A117064
:103A7000BA4901E0B0E09AE191F80C11AD4A117039
:103A8000B64991F80811AA4A1170B5E1A44909781C
:103A900001F0BF01A24A1170B949097841F0010152
:103AA000B74A11709E49097841F020019C4A117073
:103AB000AA4949696422B1FBF2F302FB13119D4A42
:103AC0001170A64949696422B1FBF2F1984A11705C
:103AD00092E1A4490968AB4A1268914246D8AA49C2
:103AE0000968B1B90021934A1170914A1170A34934
:103AF000097801F0FE01A14A11708949097801F0A5
:103B0000DF01874A11700721A04A117000218B4AFA
:103B100011708D49097821B194490978854A11704D
:103B200005E07F49097801F0FE017D4A117098494E
:103B30000978804A1170974909787D4A11708F4938
:103B4000097841F001018D4A11707549097801F039
:103B5000DF01734A11707E49097801F04001D9BB39
:103B60001146097801F0BF01117045E17D490968EE
:103B7000894A1268914230D87949D1F8D81129B1CF
:103B80006749097841F00101654A11706E49097869
:103B900021B176490978674A117003E07049097FBD
:103BA000644A11706E49097E614A1170734909783F
:103BB00041F00101714A11705949097801F0DF01A2
:103BC000574A11706249097801F0400121B9114644
:103BD000097801F0BF0111700EE16149D1F8D811E7
:103BE00029B14F49097841F001014D4A11705649F8
:103BF000097821B15D4909784E4A117003E067499F
:103C000009784C4A117066490978494A11705B4934
:103C1000097841F00101594A11704149097841F090
:103C200020013F4A11704A49097801F04001E9BB7F
:103C30001146097801F0BF011170DDE043490978B0
:103C400001F0010151B900213C4A11700121354AAE
:103C500011704249496E354A116042E0394909788C
:103C600001F0200131B13849097819B90321474AD7
:103C7000117036E03349097801F0400131B1324921
:103C8000097819B90421414A11702AE030490978AC
:103C900001F0080121B12E49097801F0020161B952
:103CA0002C4909682C4A1268914200E0A4E008D22D
:103CB0002749097801F0020119B90E21334A117020
:103CC0000FE02349097801F0100139B12449D1F8F6
:103CD000501219B118212D4A117002E000212B4A0F
:103CE00011700021134A1170114A1170234909788B
:103CF00001F0FE01214A11700949097801F0DF0144
:103D0000074A11701146097801F0BF0111701C4972
:103D1000097801F0FE011A4A11700149097841E061
:103D200079010020D0000020A7010020BC01002064
:103D30007F0100207E010020CE0000209C01002099
:103D4000C90000207D010020D40000207B0100205C
:103D50007C0100200C010020D4010020040B002075
:103D600080190020CC010020E4010020EC0000209C
:103D7000FB000020EB0000207301002078010020F0
:103D80007A010020E0010020C00100201102002083
:103D9000EE000020DF000020E8010020F0000020FD
:103DA000E000002001F0DF01F94A117024E0002159
:103DB000F84A1170F84A1170F849097801F0FE01CB
:103DC000F64A1170F249097801F0DF01F04A1170EA
:103DD0001146097801F0BF011170F149097801F02D
:103DE000FE01EF4A1170EA49097801F0DF01E84A63
:103DF00011700021EB4A1170EB490978E1B3EB49EE
:103E00000978D1B3EA490978B9B30021E64A1170BB
:103E1000E849097801F0010181B1E149097841F0EF
:103E20000201DF4A1170E44991F86410D94A117017
:103E3000E14991F86010D84A1170C9E0D849097871
:103E400001F0FD01D64A1170DC49097801F08001CA
:103E500011B9DB49096889B1CD49097841F0800180
:103E6000CB4A1170D74991F81411CA4A1170D5493B
:103E700091F81011C84A1170AAE089E0C449097884
:103E800001F07F01C24A1170CF490968CF4A126818
:103E9000914262D2CC490968CD4A126891421CD83D
:103EA000CC49097821B1CC490978BA4A117003E0AC
:103EB000CA490978B74A1170C9490978B64A1170D8
:103EC000B649097841F00201B44A1170B049097845
:103ED00001F0DF01AE4A11707AE0BB490968C14ABE
:103EE000126891421CD8BB49097821B1BA490978B6
:103EF000A84A117003E0BC490978A64A1170BB4971
:103F00000978A54A1170A549097841F00201A34A30
:103F100011709F49097841F020019D4A117057E0C6
:103F2000AC49097821B1AC4909789A4A117003E08B
:103F3000AF490978974A1170AE490978964A1170CD
:103F40009649097841F00201944A11709049097824
:103F500001F0DF018E4A11703AE00121A64A11708A
:103F60000321974A116000218A4A11708A4A117010
:103F70008A49097801F0FD01884A1170844909785D
:103F800001F0DF01824A11700021884A11701FE0A0
:103F90000021804A1170804A11708049097801F02F
:103FA000FD017E4A11707A49097801F0DF01784AF3
:103FB00011707B49097801F0FD01794A117074494B
:103FC000097801F07F01724A11700021774A11705F
:103FD00075490978F1B38949097801F00101D1B334
:103FE0007549D1F8A812B1B300216F4A1170834905
:103FF000097801F0040181B96949097841F010019B
:10400000674A11706C4991F89412624A11706A49BA
:1040100091F89012604A11700AE06149097801F044
:10402000EF015F4A117000215B4A1170594A11700B
:104030007249097801F0080199B95949097841F0A4
:104040002001574A11705C4991F8A412514A11702D
:10405000594901E026E015E091F8A0124E4A11708E
:1040600020E04F49097801F0DF014D4A11706349A2
:10407000097801F00401A9B10021464A1170464AAD
:1040800011700FE00021444A1170424A11704449F6
:10409000097801F0DF01424A11701146097801F0F8
:1040A000EF011170704700B589B0002054490870C5
:1040B0005449086054480078002842F0D782534998
:1040C0000860534908605349086053490860182044
:1040D0005249087052480078502805DA5048007854
:1040E000401C4F49087002E000204D4908704D48BF
:1040F0004B49097850F82100401C4A49484A127837
:1041000041F82200484800680D283FD12348007834
:10411000464908601E480078486021480078886059
:1041200036480078C8600846C1682448007861F3C2
:104130001F104FF6FF7148403C49C8601D48007889
:1041400008610846006900011C49097840EA11101D
:104150004FF6FF7148403549086100203449086036
:10416000344908600F2034490860344908607D20D4
:1041700033490860BE20334908607820324908601E
:104180001720324908600020079065E0CAE000006F
:10419000790100207E0100207F01002078010020AD
:1041A0007A0100209C010020CE0000209E0100200A
:1041B000C90000207D010020801900207C01002022
:1041C000BC010020040B0020CC0100201C010020B9
:1041D00014010020D4000020EC000020F100002099
:1041E000E100002018010020F2000020E200002081
:1041F000F3000020E3000020D00000207B0100201D
:104200003D000020000000203C00002004000020B1
:10421000080000200C000020700000204100002059
:104220008001002000070020B4010020040A0020C3
:104230005000002054000020580000205C000020A6
:104240006000002064000020680000206C00002056
:104250000798401CC0B20790FE49079851F82010FB
:10426000FD4A52F82000814202D107980628EFDB70
:104270000798052856DAF749079851F82010F64AAA
:1042800042F82010F54801780798401C0844F3498B
:104290000870F3480168F34A0798126800FB02109F
:1042A000EF4908600120089000BFEA49079851F8DB
:1042B00020000899084088B1EB480068E84909687F
:1042C000EA4A1268CDE900210290E9480368E9480A
:1042D0000268E94801682320FCF737F9DD490798AF
:1042E00051F8200080B94FF4EB700021DF4A1268CA
:1042F000CDE900210290DE480368DE480268DE480E
:1043000001682320FCF721F9D7480068DB490968D8
:104310000844D54908600898400008900898B0F50E
:10432000805FC2DB1821CD480170D54800680028A5
:1043300058D11820C9490870D248007848B30321E1
:104340004FF4C972D048CF4B1B7850F823001E3071
:10435000CDE901210090CD48CA49097850F82100E3
:10436000AA300690C848C749097850F8210005903E
:10437000C648C449097850F82100049001462E200F
:10438000DDE90523FCF7E1F84FF47A70C0490860D5
:1043900028E0C04800780E2824DA03214FF4C972BF
:1043A000BD48BC4B1B7850F823001E30CDE90121DD
:1043B0000090BA48B749097850F82100AA30069011
:1043C000B548B449097850F821000590B348B1497F
:1043D000097850F82100049001462D20DDE90523DD
:1043E000FCF7B3F80020AE4908600860AD480078DB
:1043F00000F0040020B14FF47840AB49086003E0BE
:104400004FF4FC61A84801609E48007860B9A74855
:10441000007809F0FFFE069000200090024601217E
:10442000069BFCF735FE0BE09648007809F0F2FE9B
:1044300006900020009002460121069BFCF728FE12
:104440009B48007809F0E6FE0690002000900122CB
:104450001146069BFCF71CFE9648007809F0DAFE30
:1044600006900020009002220121069BFCF710FE1E
:104470009148007809F0CEFE9049086090498F4835
:10448000006809F07DFD06900120009003220021C4
:10449000069BFCF7FDFD8B48007800287ED18A48FA
:1044A000D0F82001282805D28748D0F8200108300C
:1044B000864908608448D0F82401282805D282481B
:1044C000D0F824010830814948607F48D0F828019D
:1044D000282805D27C48D0F8280108307B4988601C
:1044E0007948D0F82C01282805D27748D0F82C013B
:1044F00008307649C8607448D0F85001282805D2A1
:104500007148D0F850010830704908616F48006860
:104510004008059009F07EFE0690002000900722DA
:1045200001460120069BFCF7B3FD6848406840083F
:10453000059009F06FFE06900020009004221121E2
:104540000120069BFCF7A4FD6048806840080590A8
:1045500009F060FE0690002000900A221721012039
:10456000069BFCF795FD5948C0684008069009F085
:1045700051FE524908600020009008460E221C217E
:1045800003680120FCF784FD50480069400805904D
:1045900009F040FE06900020009000E006E01422A2
:1045A00022210120069BFCF773FD4AE04648D0F823
:1045B0002001059009F02EFE0690002000900722B1
:1045C0000C210120069BFCF763FD3F48D0F8240135
:1045D000059009F01FFE06900020009004221B2188
:1045E0000120069BFCF754FD3748D0F828010590C0
:1045F00009F010FE0690002000900A2217210120E9
:10460000069BFCF745FD3048D0F82C01059009F0D9
:1046100001FE0690002000900E221C210120069B26
:10462000FCF736FD2848D0F83001059009F0F2FD7E
:10463000069000200090142222210120069BFCF706
:1046400027FD14480078042846D012480078032833
:1046500042D03DE0040A0020180A0020410000205A
:104660006000002068000020640000205C00002042
:104670005800002054000020500000206C00002052
:10468000700000201102002060E9000884E80008A2
:10469000180000206602002040E8000804E8000836
:1046A000340000203E00002038000020BE00002022
:1046B0000C0200207E010020FC0000201C000020D5
:1046C00000002041DB000020040B0020440A0020F1
:1046D000FE480078052813D1FD48006809F082FDE6
:1046E000FC490860FC49FB48006809F049FC069059
:1046F0000120009008221146069BFCF7C9FC2AE025
:10470000F24800780E2813D1F448007809F082FDB1
:10471000F0490860F049EF48006809F031FC069064
:104720000120009008221146069BFCF7B1FC12E024
:10473000EB48006809F056FDE6490860E649E5489F
:10474000006809F01DFC0690012000900822114627
:10475000069BFCF79DFCE348D0F81803059009F090
:1047600059FD0690002000900F220E210120069B8B
:10477000FCF78EFCDB48D0F81C03059009F04AFDDD
:104780000690002000900C2213210120069BFCF7CC
:104790007FFCD548006809F03DFD069000200090A0
:1047A0000D221C210120069BFCF772FCCF480068FB
:1047B00009F030FD069000200090112226210120F2
:1047C000069BFCF765FCCA48007800F0020068B957
:1047D000C848006809F01EFD0690002000901022D5
:1047E00026210120069BFCF753FC0CE0C148006821
:1047F00009F010FD069009200090102226210120CA
:10480000069BFCF745FCBA48007800F0010068B947
:10481000B848006809F0FEFC0690002000900622CF
:1048200026210120069BFCF733FC0CE0B148006810
:1048300009F0F0FC069009200090062226210120B4
:10484000069BFCF725FCAC480068002862D1AB4809
:10485000006809F0DFFC0690002000902822014645
:104860000120069BFCF714FCA548006809F0D2FC67
:10487000069000200090152201460120069BFCF7BF
:1048800007FCA048006809F0C5FC069000200090D5
:10489000092201460120069BFCF7FAFB9A480068B2
:1048A00009F0B8FC06900020009016220146012075
:1048B000069BFCF7EDFB954800694008059009F060
:1048C000A9FC0690002000902B2201460120069BA7
:1048D000FCF7DEFB8E48006809F09CFC0690002087
:1048E0000090292201460120069BFCF7D1FB854858
:1048F000006809F08FFC77490860774975480068BF
:1049000009F03EFB0690012000900B220021069B3F
:10491000FCF7BEFB7848006802287DD17148006D25
:10492000069009F077FC6B4908606B49694800689C
:1049300009F026FB0690012000907648007805904B
:104940000B221421069BFCF7A3FB66480069059027
:1049500009F060FC0690002000906E4800780590F9
:104960001C220421069BFCF793FB5F48006809F0BA
:1049700051FC0690002000906648007805901922AE
:104980000121069BFCF784FB56488068059009F0DE
:1049900041FC0690002000905E48007805901A22A5
:1049A0000221069BFCF774FB4E48C068059009F095
:1049B00031FC0690002000905648007805901B229C
:1049C0000321069BFCF764FB46484069059009F00B
:1049D00021FC0690002000904E48007805901D2292
:1049E0000521069BFCF754FB3E488069059009F0C1
:1049F00011FC0690002000904648007805901E2289
:104A00000621069BFCF744FB3648C069059009F077
:104A100001FC0690002000E0FDE000903D48007899
:104A200005901F220721069BFCF732FB2D48006AE8
:104A3000069009F0EFFB27490860274925480068E0
:104A400009F09EFA06900120009032480078059007
:104A500020220821069BFCF71BFB2248406A059098
:104A600009F0D8FB0690002000902A4800780590B5
:104A700021220921069BFCF70BFB1A48806A05904E
:104A800009F0C8FB069000200090224800780590AD
:104A900022220A21069BFCF7FBFA1248C06A059005
:104AA00009F0B8FB0690002000901A4800780590A5
:104AB00023220B21069BFCF7EBFA0A48006B0690B9
:104AC00009F0A8FB03490860034925E066020020BD
:104AD000C80100201C00002000002041DA00002056
:104AE000BC01002080190020EC010020F001002012
:104AF0007C010020F4010020B40100203C010020D2
:104B00006C0300203801002060020020440A0020CD
:104B10007003002058020020FE48006809F030FAB7
:104B2000069001200090FC480078059024220C217A
:104B3000069BFCF7ADFAF948406B059009F06AFB5B
:104B4000069000200090F4480078059025220D2161
:104B5000069BFCF79DFAF148806B059009F05AFB23
:104B6000069000200090EC480078059026220E2147
:104B7000069BFCF78DFAE948C06B059009F04AFBEB
:104B8000069000200090E4480078059027220F212D
:104B9000069BFCF77DFAE148006C059009F03AFBB2
:104BA000069000200090DC48007805902822102113
:104BB000069BFCF76DFAD948406C059009F02AFB7A
:104BC000069000200090D4480078059029221121F9
:104BD000069BFCF75DFAD148806C059009F01AFB42
:104BE000069000200090CC48007805902A221221DF
:104BF000069BFCF74DFAC948C06C059009F00AFB0A
:104C0000069000200090C448007805902B221321C4
:104C1000069BFCF73DFAC248006803287ED1BF48D6
:104C2000D0F8A800069009F0F5FABA49086000200B
:104C30000090B9480078069008460B2214210368BA
:104C40000698FCF725FAB548C06D059009F0E2FA20
:104C5000069000200090B0480078059019220121AC
:104C6000069BFCF715FAAD48006E059009F0D2FAE4
:104C7000069000200090A848007805901A22022192
:104C8000069BFCF705FAA548406E059009F0C2FAAC
:104C9000069000200090A048007805901B22032178
:104CA000069BFCF7F5F99D48806E069009F0B2FA74
:104CB000984908609B499748006809F061F9069097
:104CC000012000909448007805901C220421069B46
:104CD000FCF7DEF99148C06E059009F09BFA06904A
:104CE000002000908C48007805901D220521069B2D
:104CF000FCF7CEF98948006F059009F08BFA069011
:104D0000002000908448007805901E220621069B12
:104D1000FCF7BEF98148406F059000E0E4E009F03F
:104D200079FA0690002000907B48007805901F22B9
:104D30000721069BFCF7ACF97848806F069009F0D4
:104D400069FA7449086077497248006809F018F9EF
:104D500006900020009070480078059020220821DD
:104D6000069BFCF795F96D48C06F059009F052FA63
:104D700006900020009068480078059021220921C3
:104D8000069BFCF785F96548D0F88000059009F08E
:104D900041FA0690002000905F480078059022229A
:104DA0000A21069BFCF774F95C48D0F88400059052
:104DB00009F030FA069000200090574800780590DE
:104DC00023220B21069BFCF763F95448D0F8880096
:104DD000069009F01FFA4F49086052494D48006893
:104DE00009F0CEF80690002000904B48007805901E
:104DF00024220C21069BFCF74BF94848D0F88C0084
:104E0000059009F007FA06900020009042480078CB
:104E1000059025220D21069BFCF73AF93F48D0F872
:104E20009000059009F0F6F90690002000903A48AD
:104E30000078059026220E21069BFCF729F93748B9
:104E4000D0F89400059009F0E5F906900020009054
:104E500031480078059027220F21069BFCF718F9AE
:104E60002E48D0F89800059009F0D4F9069000205B
:104E7000009029480078059028221021069BFCF715
:104E800007F92648D0F89C00059009F0C3F9069070
:104E90000020009020480078059029221121069BCF
:104EA000FCF7F6F81D48D0F8A000059009F0B2F91B
:104EB0000690002000901848007805902A221221C0
:104EC000069BFCF7E5F81548D0F8A400059009F01A
:104ED000A1F90690002000900F48007805902B2241
:104EE0001321069BFCF7D4F80D48006804287DD1F7
:104EF0004FF4E2706921CDE900100848D0F8E400D1
:104F0000069005480078059058220D21069BFCF775
:104F100023F909E01C00002058020020801900201D
:104F2000B401002000002041FE48D0F8E0000690C7
:104F300009F070F9FC490860FC49FB48006809F079
:104F40001FF8069001200090F948007805900B2288
:104F50000C21069BFCF79CF809200090F44800788F
:104F6000F24B05220C210690FCF792F8ED48D0F8A0
:104F7000B000059009F04EF9069009200090EC4829
:104F80000078059018220021069BFCF781F8E5487F
:104F9000D0F8B400059009F03DF90690002000908B
:104FA000E3480078059019220121069BFCF770F870
:104FB000DC48D0F8B800059009F02CF906900020E4
:104FC0000090DB48007805901A220221069BFCF72E
:104FD0005FF8D448D0F8BC00059009F01BF90690A2
:104FE00000200090D2480078059000E09AE01B2253
:104FF0000321069BFCF74CF8CA48D0F8C000069085
:1050000009F008F9C8490860C849C748006808F0AD
:10501000B7FF069009200090C5480078059020222F
:105020000421069BFCF734F8BE48D0F8C400059074
:1050300009F0F0F8069000200090BD480078059037
:1050400021220521069BFCF723F8B648D0F8C800BA
:10505000059009F0DFF8069000200090B448007831
:10506000059022220621069BFCF712F8AD48D0F8E5
:10507000CC00059009F0CEF8069000200090AC48D6
:105080000078059023220721069BFCF701F8A5482C
:10509000D0F8D000069009F0BDF8A3490860A349F4
:1050A000A148006808F06CFF069001200090A0481D
:1050B0000078059028220821069BFBF7E9FF994814
:1050C000D0F8D400059009F0A5F8069009200090CA
:1050D00097480078059029220921069BFBF7D8FF05
:1050E0009048D0F8D800059009F094F8069009206F
:1050F00000908F48007805902A220A21069BFBF732
:10510000C7FF8848D0F8DC00059009F083F80690C6
:10511000092000908648007805902B220B21069BE1
:10512000FBF7B6FF8348006805287DD17D48D0F89D
:105130003401069009F06EF87B4908607B497A4893
:10514000006808F01DFF0690012000907848007864
:10515000059005220B21069BFBF79AFF7148D0F8BA
:105160003001069009F056F86F4908606F496E48A3
:10517000006808F005FF0690012000906C48007858
:1051800005900B220A21069BFBF782FF6548D0F8A9
:105190000801069009F03EF863490860002000907D
:1051A0006348007806900846182200210368069894
:1051B000FBF76EFF5B48D0F80C01059009F02AF868
:1051C0000690002000905A4800780590192201218D
:1051D000069BFBF75DFF5348D0F81001059009F0DE
:1051E00019F80690002000905148007805901A2286
:1051F0000221069BFBF74CFF4A48D0F814010590AA
:1052000009F008F8069000200090494800780590C1
:105210001B220321069BFBF73BFF4248D0F82801E5
:10522000069008F0F7FF00E0BBE03F49086000206F
:1052300000903F4800780690084620222821036805
:105240000698FBF725FF3748D0F81C01059008F0B9
:10525000E1FF069009200090354800780590222251
:105260003021069BFBF714FF2E48D0F82001059053
:1052700008F0D0FF0690092000902D480078059096
:1052800023222C21069BFBF703FF2648D0F81801A8
:10529000069008F0BFFF24490860244922480068AE
:1052A00008F06EFE069001200090214800780590DD
:1052B00024220421069BFBF7EBFE1A48D0F81C01C0
:1052C000059008F0A7FF069000200090184800788D
:1052D000059025220521069BFBF7DAFE1148D0F840
:1052E0002001059008F096FF0690002000901048DD
:1052F0000078059026220621069BFBF7C9FE094887
:10530000D0F82401059008F085FF06900020009059
:1053100007480078059027220721069BFBF7B8FE77
:10532000004809E0801900201C00002000002041F6
:1053300058020020B4010020D0F82801069008F09F
:1053400069FFFE49086000200090FD480078069043
:1053500008462822082103680698FBF799FE4FF4B7
:10536000BD716920CDE90001F648D0F8280106900A
:10537000F3480078059058220821069BFBF7ECFEC5
:1053800040F29F106921CDE90010EE48D0F82C01C1
:105390000690EB480078059058220921069BFBF700
:1053A000DBFEE948006806287ED1E648D0F8A00177
:1053B000069008F02FFFE1490860E449DF480068E3
:1053C00008F0DEFD069001200090DD480078059091
:1053D0000B221021069BFBF75BFEDA48D0F8880110
:1053E000069008F017FFD5490860D648D0F88C0120
:1053F000069008F00FFFD1490860D248D0F860014C
:10540000069008F007FFCD490860D049CB480068F6
:1054100008F0B6FD069001200090C948007805907C
:1054200018220021069BFBF733FEC648D0F8640122
:10543000059008F0EFFE069000200090C04800782C
:10544000059019220121069BFBF722FEBD48D0F8EA
:105450006801059008F0DEFE069000200090B84834
:10546000007805901A220221069BFBF711FEB54831
:10547000D0F86C01059008F0CDFE06900020009059
:10548000AF48007805901B220321069BFBF700FE26
:10549000AC48D0F87001069008F0BCFEA74908603F
:1054A000AA49A648006800E02AE108F069FD0690D4
:1054B00001200090A248007805901C220421069B40
:1054C000FBF7E6FD9F48D0F87401059008F0A2FEB6
:1054D0000690002000909A48007805901D22052132
:1054E000069BFBF7D5FD9748D0F87801059008F0AA
:1054F00091FE0690002000909148007805901E22B1
:105500000621069BFBF7C4FD8E48D0F87C01059070
:1055100008F080FE069000200090894800780590F1
:105520001F220721069BFBF7B3FD8648D0F88001B8
:10553000069008F06FFE8149086084497F48006842
:1055400008F01EFD0690012000907D48007805902F
:1055500020220821069BFBF79BFD7A48D0F88401A6
:10556000059008F057FE06900020009074480078DF
:10557000059021220921069BFBF78AFD7148D0F88E
:105580008801059008F046FE0690002000906C48C7
:105590000078059022220A21069BFBF779FD6948D5
:1055A000D0F88C01059008F035FE069000200090A0
:1055B00063480078059023220B21069BFBF768FDCA
:1055C0006048D0F89001069008F024FE5B4908601E
:1055D0005E495A48006808F0D3FC06900920009004
:1055E00057480078059024222321069BFBF750FDA5
:1055F0005448D0F89401059008F00CFE069009205C
:1056000000904F480078059025222321069BFBF748
:105610003FFD4C48D0F89801059008F0FBFD06903E
:105620000920009046480078059026222321069BF9
:10563000FBF72EFD4348D0F89C01059008F0EAFDE9
:105640000690092000903E480078059027222321EB
:10565000069BFBF71DFD3B48D0F89C01059008F028
:10566000D9FD069009200090354800780590282241
:105670002321069BFBF70CFD3248D0F89C010590D6
:1056800008F0C8FD0690092000902D48007805908C
:1056900029222321069BFBF7FBFC2A48D0F89C011A
:1056A000059008F0B7FD0690092000902448007886
:1056B00005902A222321069BFBF7EAFC2148D0F81B
:1056C0009C01059008F0A6FD0690092000901C485A
:1056D000007805902B222321069BFBF7D9FC194863
:1056E000D0F89C01059008F095FD069009200090E7
:1056F0001348007805902C222321069BFBF7C8FC59
:105700001148006807287DD10E48D0F8E4010690C2
:1057100008F080FD094908600C490848006808F055
:105720002FFC0690012000900548007805900B2280
:105730001146069BFBF7ACFC024809E01C00002068
:105740005802002080190020B401002000002041F0
:10575000D0F8E001069008F05DFDFE4908600020E9
:105760000090FD4800780690084613220A2103683D
:105770000698FBF78DFC40F233106921CDE900104B
:10578000F648D0F8D8010690F348007805905822E2
:105790000821069BFBF7E0FC4FF4BE706921CDE9C0
:1057A0000010EE48D0F8DC010690EB480078059038
:1057B00058220921069BFBF7CFFCE848D0F8B80136
:1057C000069008F027FDE3490860E549E1480068D4
:1057D00008F0D6FB069001200090DF480078059085
:1057E00018220021069BFBF753FCDC48D0F8BC01D3
:1057F000059008F00FFD069000200090D648007834
:10580000059000E0E8E019220121069BFBF740FC2F
:10581000D248D0F8C001059008F0FCFC06900020AA
:105820000090CD48007805901A220221069BFBF7D4
:105830002FFCCA48D0F8C401059008F0EBFC069094
:1058400000200090C448007805901B220321069B8D
:10585000FBF71EFCC148D0F8C801069008F0DAFC3E
:10586000BC490860BE49BB48006808F089FB069047
:1058700001200090B848007805901C220421069B66
:10588000FBF706FCB548D0F8CC01059008F0C2FC47
:10589000069000200090B048007805901D22052158
:1058A000069BFBF7F5FBAD48D0F8D001059008F05A
:1058B000B1FC069000200090A748007805901E22B9
:1058C0000621069BFBF7E4FBA448D0F8D401059021
:1058D00008F0A0FC0690002000909F4800780590FA
:1058E0001F220721069BFBF7D3FB9C48D0F8D4016D
:1058F000059008F08FFC06900920009096480078EB
:10590000059020222521069BFBF7C2FB9348D0F887
:10591000D401059008F07EFC0690092000908E4886
:105920000078059021222F21069BFBF7B1FB8B48C5
:10593000D0F8D401059008F06DFC06900920009085
:1059400085480078059022222F21069BFBF7A0FBBB
:105950008248D0F8D401059008F05CFC069009203C
:1059600000907D480078059023222F21069BFBF7AD
:105970008FFB7A48D0F8D401059008F04BFC0690D4
:105980000920009074480078059024222F21069B5E
:10599000FBF77EFB7148D0F8D401059008F03AFC83
:1059A0000690092000906C480078059026222F214F
:1059B000069BFBF76DFB6948D0F8D401059008F011
:1059C00029FC069009200090634800780590272262
:1059D0002F21069BFBF75CFB6248006808287DD1FD
:1059E0005E48D0F85002069008F014FC594908604F
:1059F0004FF49A706921CDE900105848D0F8500250
:105A0000069055480078059058221021069BFBF718
:105A1000A3FB4FF4BE706921CDE900104F48D0F8C8
:105A2000540206904C480078059058221121069B9C
:105A3000FBF792FB4948D0F85402069008F0EAFBC5
:105A4000444908604548D0F83802069008F0E2FB67
:105A5000404908604148D0F81002069008F0DAFB8F
:105A60003C4908603E493B48006808F089FA0690C6
:105A70000120009038480078059018220021069BEC
:105A8000FBF706FB3548D0F81402059008F0C2FB7E
:105A900006900020009030480078059019220121DE
:105AA000069BFBF7F5FA2D48D0F81802059008F090
:105AB000B1FB0690002000902748007805901A223C
:105AC0000221069BFBF7E4FA2448D0F81C0205905B
:105AD00008F0A0FB06900020009000E003E11E48C3
